S0140000626967686F6D65776F726B322E7372656340
S113000012C02CC049C32AC029C028C027C026C09A
S113001025C024C023C022C021C020C01FC01EC0D0
S11300201DC01CC01BC011241FBECFE5D4E0DEBF21
S1130030CDBF10E0A0E6B0E0E8E7F8E002C005902C
S11300400D92A437B107D9F723E0A4E7B0E001C0CB
S11300501D92A339B207E1F7E9D20CC4D1CFFC0158
S11300600FB6F89460918F0370919003809191037F
S1130070909192030FBE309721F060837183828345
S11300809383089511B882E080B984E086BF08950F
S113009084EA86BF06B607FEFDCF089583B984E8D7
S11300A086BF06B607FEFDCF0895CF93DF93C82F12
S11300B0D62FEEDF88E7F2DFD11103C080E0EEDF58
S11300C002C080E4EBDF8C2FE9DF84E986BFDF9197
S11300D0CF910895CF93C82F862F877060E0805505
S11300E0E4DF8C2F82958F7060E08061DEDF60E05A
S11300F08C2F8F70DADFCF910895CF93DF93D0EBFD
S113010060E08D2FD2DF60E082E0CFDF60E080E14D
S1130110CCDFC0E061E080E0C8DFCF5FC038D1F75A
S1130120DF5FD83B69F7DF91CF91089560E08EEAF5
S1130130BCDF60E082E0B9DF60E080E1B6DF60E070
S113014080E4B3DF60E081E8B0DF60E08FECADDF36
S113015060E081EAAADF60E088ECA7DF60E086EA7D
S1130160A4DF60E088EAA1DF60E08FE39EDF60E067
S113017083ED9BDF60E080E098DF60E085ED95DF54
S113018060E080E892DF60E089ED8FDF60E081EF7E
S11301908CDF60E08AED89DF60E082E186DF60E089
S11301A08BED83DF60E080E480DF60E080E27DDF70
S11301B060E082E07ADF60E08DE877DF60E084E190
S11301C074DF60E084EA71DF60E086EA6EDF60E09D
S11301D08FEA6BDF60E080E07DDF0895FF920F938C
S11301E01F93CF93DF938C010F5F1C4F0F2EF1EB06
S11301F0FF2EF02D60E08F2D58DF60E080E055DFAA
S113020060E080E152DFE801D35061E088814DDF96
S11302102696C017D107C9F7F3940F5F1F4F87EBDA
S1130220F812E8CFDF91CF911F910F91FF900895BD
S113023090E0FC01EE0FFF1F8E0F9F1F880F991F88
S1130240FA01E80FF91F862F8695869586958F5FAC
S1130250E80FF11D677081E090E002C0880F991FDC
S11302606A95E2F79081892B8083089590E0FC01E0
S1130270EE0FFF1F8E0F9F1F880F991FFA01E80FC3
S1130280F91F862F8695869586958F5FE80FF11D59
S1130290677081E090E002C0880F991F6A95E2F7C9
S11302A080959081892380830895FF920F931F93F3
S11302B0CF93DF938A01D62FDD0FC82FCC0F6D2F7C
S11302C08C2FB6DFFF24F394FD0EA8016F2D8C2F25
S11302D0AFDFCF5FA8016D2F8C2FAADFA8016F2D90
S11302E08C2FA6DFDF91CF911F910F91FF9008957E
S11302F0FF920F931F93CF93DF938A01D62FDD0FC5
S1130300C82FCC0F6D2F8C2FB1DFFF24F394FD0E7B
S1130310A8016F2D8C2FAADFCF5FA8016D2F8C2F22
S1130320A5DFA8016F2D8C2FA1DFDF91CF911F9145
S11303300F91FF900895CF93DF93CDB7DEB7609709
S11303400FB6F894DEBF0FBECDBF90E1E4E6F0E057
S1130350DE01119601900D929A95E1F79FEF97BBFC
S113036091E094BB15BA15BAE1E0F0E0EC0FFD1F83
S1130370E80FF11D808188BB60960FB6F894DEBF4C
S11303800FBECDBFDF91CF910895CF93C0E04FE86A
S113039050E06C2F81E089DF4FE850E06C2F8FE351
S11303A084DFCF5FC83199F7C1E04FE850E060E0E7
S11303B08C2F7BDF4FE850E067E18C2F76DFCF5F37
S11303C0CF3399F7CF910895E6E7F0E083E0828395
S11303D080E280838CE08183E9E7F0E09FE1908311
S11303E081839EE19283838308958823F1F08F3380
S11303F0F1F06623F1F06731F1F0209178002223C7
S1130400E9F0E9E7F0E0215030E0220F331F2558EE
S11304103F4F9081891303C09181691771F032961F
S1130420E217F307B1F720E009C021E007C021E09B
S113043005C021E003C021E001C024E0822F08951B
S1130440EF92FF920F931F93CF93DF930F2EFDE351
S1130450EF2EF12CF02D05E110E0A3D1B70132D13C
S1130460C1E0C80F9ED1B8012DD1D1E0D80F6D2FB6
S11304708C2FBBDF8111F1CFC0938D00D0938E0000
S11304804FE850E06D2F8C2F10DF8FE890E0A6DE50
S1130490DF91CF911F910F91FF90EF9008950F93EB
S11304A01F93CF93DF93813009F5C6E7D0E04FE87F
S11304B050E069818881F9DE8A81882399F0C0E05F
S11304C006E710E0EC2FF0E0EE0FFF1FE758FF4FB8
S11304D04FE850E061818081E8DECF5FF8018281DE
S11304E0C81780F38FE890E079DE20C0C6E7D0E03B
S11304F04FE850E069818881FBDE8A81882399F086
S1130500C0E006E710E0EC2FF0E0EE0FFF1FE75825
S1130510FF4F4FE850E061818081EADECF5FF80150
S11305208281C81780F38FE890E058DEDF91CF9185
S11305301F910F910895CF93DF93D82FC62F80E09A
S1130540AEDF80917800815091F0E82FF0E0DF0178
S1130550AA0FBB1FA958BF4F9C91EE0FFF1FE7586E
S1130560FF4F908311969C919183815071F7E6E738
S1130570F0E09081A9E7B0E09C93818111968C937F
S1130580D90FD083C80FC18381E089DFDF91CF9178
S113059008959091770020918E00921315C03091A8
S11305A0760020918D0032130FC04ADFE6E7F0E0B9
S11305B082818F5F8283809174008F5F8093740047
S11305C08FE890E00BDE0895690F90917600890F13
S11305D00CDF813031F0843021F0809178008B3051
S11305E068F02FE78AE196E0215080409040E1F7DF
S11305F000C0000082DD80E090E03CD108951F93AC
S1130600CF93DF93D82FC62F142F8091740093DEDD
S11306106C2F8D2FBEDF6C2F8D2F8DDF8091750099
S1130620811799F3DF91CF911F9108952BDD7EDD22
S113063064DD899885B78C6085BF8BB780688BBF74
S11306407894A3DEC1DE80E090E009DDCB01ADD07B
S1130650F7DE81E024DF8FE890E0C0DD8091750053
S1130660813031F0A0F0823069F0833031F0F3CF83
S113067041E06FEF80E0C3DFEECF43E061E080E074
S1130680BEDFE9CF42E060E08FEFB9DFE4CF40E0C6
S113069060E081E0B4DFDFCF1F920F920FB60F92BC
S11306A011248F9380917500833020F48F5F8093A1
S11306B0750002C0109275008F910F900FBE0F90BD
S11306C01F90189597FB072E16F4009406D077FD1B
S11306D008D00BD007FC05D03EF4909581959F4F30
S11306E00895709561957F4F0895AA1BBB1B51E136
S11306F007C0AA1FBB1FA617B70710F0A61BB70B8E
S1130700881F991F5A95A9F780959095BC01CD0132
S113071008958F929F92AF92BF92CF92DF92EF9201
S1130720FF92CF93DF93EC01688179818A819B8169
S1130730611571058105910521F464E279ED8BE57C
S113074097E02DE133EF41E050E03AD049015A01FE
S11307509B01AC01A7EAB1E44FD06B017C01ACEE84
S1130760B4EFA501940154D0DC01CB018C0D9D1D87
S1130770AE1DBF1DB7FF03C00197A109B048888310
S11307809983AA83BB839F77DF91CF91FF90EF90EA
S1130790DF90CF90BF90AF909F908F900895B9DF76
S11307A0089580E690E0B5DF0895A0E0B0E080937E
S11307B0600090936100A0936200B0936300089579
S11307C0052E97FB16F400940FD057FD05D024D0C6
S11307D007FC02D046F408C0509540953095219509
S11307E03F4F4F4F5F4F0895909580957095619559
S11307F07F4F8F4F9F4F089531D0A59F900DB49F89
S1130800900DA49F800D911D11240895B7FFF4CF7E
S1130810F3DF821B930B0895A1E21A2EAA1BBB1BC4
S1130820FD010DC0AA1FBB1FEE1FFF1FA217B307B8
S1130830E407F50720F0A21BB30BE40BF50B661FCE
S1130840771F881F991F1A9469F760957095809592
S113085090959B01AC01BD01CF010895A29FB00109
S1130860B39FC001A39F01D0B29F700D811D1124BD
S10B0870911D0895F894FFCFD7
S113087801000000FC60DAF266B6BEE0FEF6EE3E69
S10708889C7A9E8E26
S9030000FC
